{
  "contractName": "CommFutureNFT",
  "abi": [
    {
      "inputs": [],
      "stateMutability": "nonpayable",
      "type": "constructor"
    },
    {
      "anonymous": false,
      "inputs": [
        {
          "indexed": true,
          "internalType": "address",
          "name": "owner",
          "type": "address"
        },
        {
          "indexed": true,
          "internalType": "address",
          "name": "approved",
          "type": "address"
        },
        {
          "indexed": true,
          "internalType": "uint256",
          "name": "tokenId",
          "type": "uint256"
        }
      ],
      "name": "Approval",
      "type": "event"
    },
    {
      "anonymous": false,
      "inputs": [
        {
          "indexed": true,
          "internalType": "address",
          "name": "owner",
          "type": "address"
        },
        {
          "indexed": true,
          "internalType": "address",
          "name": "operator",
          "type": "address"
        },
        {
          "indexed": false,
          "internalType": "bool",
          "name": "approved",
          "type": "bool"
        }
      ],
      "name": "ApprovalForAll",
      "type": "event"
    },
    {
      "anonymous": false,
      "inputs": [
        {
          "indexed": true,
          "internalType": "address",
          "name": "from",
          "type": "address"
        },
        {
          "indexed": true,
          "internalType": "address",
          "name": "to",
          "type": "address"
        },
        {
          "indexed": true,
          "internalType": "uint256",
          "name": "tokenId",
          "type": "uint256"
        }
      ],
      "name": "Transfer",
      "type": "event"
    },
    {
      "anonymous": false,
      "inputs": [
        {
          "indexed": false,
          "internalType": "address",
          "name": "to",
          "type": "address"
        },
        {
          "indexed": false,
          "internalType": "uint256",
          "name": "tokenId",
          "type": "uint256"
        }
      ],
      "name": "_minted",
      "type": "event"
    },
    {
      "anonymous": false,
      "inputs": [
        {
          "indexed": false,
          "internalType": "address",
          "name": "previousOwner",
          "type": "address"
        },
        {
          "indexed": false,
          "internalType": "address",
          "name": "newOwner",
          "type": "address"
        },
        {
          "indexed": false,
          "internalType": "uint256",
          "name": "tokenId",
          "type": "uint256"
        }
      ],
      "name": "_stateAfter",
      "type": "event"
    },
    {
      "anonymous": false,
      "inputs": [
        {
          "indexed": false,
          "internalType": "address",
          "name": "from",
          "type": "address"
        },
        {
          "indexed": false,
          "internalType": "address",
          "name": "to",
          "type": "address"
        },
        {
          "indexed": false,
          "internalType": "uint256",
          "name": "tokenId",
          "type": "uint256"
        }
      ],
      "name": "_stateBefore",
      "type": "event"
    },
    {
      "inputs": [],
      "name": "_contractOwner",
      "outputs": [
        {
          "internalType": "address",
          "name": "",
          "type": "address"
        }
      ],
      "stateMutability": "view",
      "type": "function",
      "constant": true
    },
    {
      "inputs": [
        {
          "internalType": "bytes4",
          "name": "interfaceId",
          "type": "bytes4"
        }
      ],
      "name": "supportsInterface",
      "outputs": [
        {
          "internalType": "bool",
          "name": "",
          "type": "bool"
        }
      ],
      "stateMutability": "view",
      "type": "function",
      "constant": true
    },
    {
      "inputs": [
        {
          "internalType": "address",
          "name": "owner",
          "type": "address"
        }
      ],
      "name": "balanceOf",
      "outputs": [
        {
          "internalType": "uint256",
          "name": "",
          "type": "uint256"
        }
      ],
      "stateMutability": "view",
      "type": "function",
      "constant": true
    },
    {
      "inputs": [
        {
          "internalType": "uint256",
          "name": "tokenId",
          "type": "uint256"
        }
      ],
      "name": "ownerOf",
      "outputs": [
        {
          "internalType": "address",
          "name": "",
          "type": "address"
        }
      ],
      "stateMutability": "view",
      "type": "function",
      "constant": true
    },
    {
      "inputs": [],
      "name": "name",
      "outputs": [
        {
          "internalType": "string",
          "name": "",
          "type": "string"
        }
      ],
      "stateMutability": "view",
      "type": "function",
      "constant": true
    },
    {
      "inputs": [],
      "name": "symbol",
      "outputs": [
        {
          "internalType": "string",
          "name": "",
          "type": "string"
        }
      ],
      "stateMutability": "view",
      "type": "function",
      "constant": true
    },
    {
      "inputs": [
        {
          "internalType": "uint256",
          "name": "tokenId",
          "type": "uint256"
        }
      ],
      "name": "tokenURI",
      "outputs": [
        {
          "internalType": "string",
          "name": "",
          "type": "string"
        }
      ],
      "stateMutability": "view",
      "type": "function",
      "constant": true
    },
    {
      "inputs": [
        {
          "internalType": "address",
          "name": "to",
          "type": "address"
        },
        {
          "internalType": "uint256",
          "name": "tokenId",
          "type": "uint256"
        }
      ],
      "name": "approve",
      "outputs": [],
      "stateMutability": "nonpayable",
      "type": "function"
    },
    {
      "inputs": [
        {
          "internalType": "uint256",
          "name": "tokenId",
          "type": "uint256"
        }
      ],
      "name": "getApproved",
      "outputs": [
        {
          "internalType": "address",
          "name": "",
          "type": "address"
        }
      ],
      "stateMutability": "view",
      "type": "function",
      "constant": true
    },
    {
      "inputs": [
        {
          "internalType": "address",
          "name": "operator",
          "type": "address"
        },
        {
          "internalType": "bool",
          "name": "approved",
          "type": "bool"
        }
      ],
      "name": "setApprovalForAll",
      "outputs": [],
      "stateMutability": "nonpayable",
      "type": "function"
    },
    {
      "inputs": [
        {
          "internalType": "address",
          "name": "owner",
          "type": "address"
        },
        {
          "internalType": "address",
          "name": "operator",
          "type": "address"
        }
      ],
      "name": "isApprovedForAll",
      "outputs": [
        {
          "internalType": "bool",
          "name": "",
          "type": "bool"
        }
      ],
      "stateMutability": "view",
      "type": "function",
      "constant": true
    },
    {
      "inputs": [
        {
          "internalType": "address",
          "name": "from",
          "type": "address"
        },
        {
          "internalType": "address",
          "name": "to",
          "type": "address"
        },
        {
          "internalType": "uint256",
          "name": "tokenId",
          "type": "uint256"
        }
      ],
      "name": "transferFrom",
      "outputs": [],
      "stateMutability": "nonpayable",
      "type": "function"
    },
    {
      "inputs": [
        {
          "internalType": "address",
          "name": "from",
          "type": "address"
        },
        {
          "internalType": "address",
          "name": "to",
          "type": "address"
        },
        {
          "internalType": "uint256",
          "name": "tokenId",
          "type": "uint256"
        }
      ],
      "name": "safeTransferFrom",
      "outputs": [],
      "stateMutability": "nonpayable",
      "type": "function"
    },
    {
      "inputs": [
        {
          "internalType": "address",
          "name": "from",
          "type": "address"
        },
        {
          "internalType": "address",
          "name": "to",
          "type": "address"
        },
        {
          "internalType": "uint256",
          "name": "tokenId",
          "type": "uint256"
        },
        {
          "internalType": "bytes",
          "name": "_data",
          "type": "bytes"
        }
      ],
      "name": "safeTransferFrom",
      "outputs": [],
      "stateMutability": "nonpayable",
      "type": "function"
    },
    {
      "inputs": [
        {
          "internalType": "address",
          "name": "to",
          "type": "address"
        }
      ],
      "name": "safeMint",
      "outputs": [],
      "stateMutability": "nonpayable",
      "type": "function"
    },
    {
      "inputs": [
        {
          "internalType": "uint256",
          "name": "tokenId",
          "type": "uint256"
        }
      ],
      "name": "burn",
      "outputs": [],
      "stateMutability": "nonpayable",
      "type": "function"
    }
  ],
  "bytecode": "0x60806040526040518060400160405280600d81526020017f436f6d6d4675747572654e4654000000000000000000000000000000000000008152506001908051906020019062000051929190620000f5565b506040518060400160405280600381526020017f43464e0000000000000000000000000000000000000000000000000000000000815250600290805190602001906200009f929190620000f5565b50348015620000ad57600080fd5b5033600360006101000a81548173ffffffffffffffffffffffffffffffffffffffff021916908373ffffffffffffffffffffffffffffffffffffffff16021790555062000209565b8280546200010390620001d4565b90600052602060002090601f01602090048101928262000127576000855562000173565b82601f106200014257805160ff191683800117855562000173565b8280016001018555821562000173579182015b828111156200017257825182559160200191906001019062000155565b5b50905062000182919062000186565b5090565b5b80821115620001a157600081600090555060010162000187565b5090565b7f4e487b7100000000000000000000000000000000000000000000000000000000600052602260045260246000fd5b60006002820490506001821680620001ed57607f821691505b602082108103620002035762000202620001a5565b5b50919050565b612c4e80620002196000396000f3fe608060405234801561001057600080fd5b50600436106101005760003560e01c806342966c6811610097578063a22cb46511610066578063a22cb465146102ab578063b88d4fde146102c7578063c87b56dd146102e3578063e985e9c51461031357610100565b806342966c68146102115780636352211e1461022d57806370a082311461025d57806395d89b411461028d57610100565b806323b872dd116100d357806323b872dd1461019f5780632bb3b114146101bb57806340d097c3146101d957806342842e0e146101f557610100565b806301ffc9a71461010557806306fdde0314610135578063081812fc14610153578063095ea7b314610183575b600080fd5b61011f600480360381019061011a9190611a6a565b610343565b60405161012c9190611ab2565b60405180910390f35b61013d610425565b60405161014a9190611b66565b60405180910390f35b61016d60048036038101906101689190611bbe565b6104b7565b60405161017a9190611c2c565b60405180910390f35b61019d60048036038101906101989190611c73565b61053c565b005b6101b960048036038101906101b49190611cb3565b610653565b005b6101c36106b3565b6040516101d09190611c2c565b60405180910390f35b6101f360048036038101906101ee9190611d06565b6106d9565b005b61020f600480360381019061020a9190611cb3565b610756565b005b61022b60048036038101906102269190611bbe565b610776565b005b61024760048036038101906102429190611bbe565b6107fe565b6040516102549190611c2c565b60405180910390f35b61027760048036038101906102729190611d06565b6108af565b6040516102849190611d42565b60405180910390f35b610295610966565b6040516102a29190611b66565b60405180910390f35b6102c560048036038101906102c09190611d89565b6109f8565b005b6102e160048036038101906102dc9190611efe565b610a0e565b005b6102fd60048036038101906102f89190611bbe565b610a70565b60405161030a9190611b66565b60405180910390f35b61032d60048036038101906103289190611f81565b610b17565b60405161033a9190611ab2565b60405180910390f35b60007f80ac58cd000000000000000000000000000000000000000000000000000000007bffffffffffffffffffffffffffffffffffffffffffffffffffffffff1916827bffffffffffffffffffffffffffffffffffffffffffffffffffffffff1916148061040e57507f5b5e139f000000000000000000000000000000000000000000000000000000007bffffffffffffffffffffffffffffffffffffffffffffffffffffffff1916827bffffffffffffffffffffffffffffffffffffffffffffffffffffffff1916145b8061041e575061041d82610bab565b5b9050919050565b60606001805461043490611ff0565b80601f016020809104026020016040519081016040528092919081815260200182805461046090611ff0565b80156104ad5780601f10610482576101008083540402835291602001916104ad565b820191906000526020600020905b81548152906001019060200180831161049057829003601f168201915b5050505050905090565b60006104c282610c15565b610501576040517f08c379a00000000000000000000000000000000000000000000000000000000081526004016104f890612093565b60405180910390fd5b6006600083815260200190815260200160002060009054906101000a900473ffffffffffffffffffffffffffffffffffffffff169050919050565b6000610547826107fe565b90508073ffffffffffffffffffffffffffffffffffffffff168373ffffffffffffffffffffffffffffffffffffffff16036105b7576040517f08c379a00000000000000000000000000000000000000000000000000000000081526004016105ae90612125565b60405180910390fd5b8073ffffffffffffffffffffffffffffffffffffffff166105d6610c81565b73ffffffffffffffffffffffffffffffffffffffff1614806106055750610604816105ff610c81565b610b17565b5b610644576040517f08c379a000000000000000000000000000000000000000000000000000000000815260040161063b906121b7565b60405180910390fd5b61064e8383610c89565b505050565b61066461065e610c81565b82610d42565b6106a3576040517f08c379a000000000000000000000000000000000000000000000000000000000815260040161069a90612249565b60405180910390fd5b6106ae838383610e20565b505050565b600360009054906101000a900473ffffffffffffffffffffffffffffffffffffffff1681565b6106e1611086565b610720576040517f08c379a0000000000000000000000000000000000000000000000000000000008152600401610717906122db565b60405180910390fd5b61072a60006110de565b600061073660006110f4565b9050610752828260405180602001604052806000815250611102565b5050565b61077183838360405180602001604052806000815250610a0e565b505050565b6000610781826107fe565b90508073ffffffffffffffffffffffffffffffffffffffff163373ffffffffffffffffffffffffffffffffffffffff16146107f1576040517f08c379a00000000000000000000000000000000000000000000000000000000081526004016107e890612347565b60405180910390fd5b6107fa8261115d565b5050565b6000806004600084815260200190815260200160002060009054906101000a900473ffffffffffffffffffffffffffffffffffffffff169050600073ffffffffffffffffffffffffffffffffffffffff168173ffffffffffffffffffffffffffffffffffffffff16036108a6576040517f08c379a000000000000000000000000000000000000000000000000000000000815260040161089d906123d9565b60405180910390fd5b80915050919050565b60008073ffffffffffffffffffffffffffffffffffffffff168273ffffffffffffffffffffffffffffffffffffffff160361091f576040517f08c379a00000000000000000000000000000000000000000000000000000000081526004016109169061246b565b60405180910390fd5b600560008373ffffffffffffffffffffffffffffffffffffffff1673ffffffffffffffffffffffffffffffffffffffff168152602001908152602001600020549050919050565b60606002805461097590611ff0565b80601f01602080910402602001604051908101604052809291908181526020018280546109a190611ff0565b80156109ee5780601f106109c3576101008083540402835291602001916109ee565b820191906000526020600020905b8154815290600101906020018083116109d157829003601f168201915b5050505050905090565b610a0a610a03610c81565b838361127a565b5050565b610a1f610a19610c81565b83610d42565b610a5e576040517f08c379a0000000000000000000000000000000000000000000000000000000008152600401610a5590612249565b60405180910390fd5b610a6a848484846113e6565b50505050565b6060610a7b82610c15565b610aba576040517f08c379a0000000000000000000000000000000000000000000000000000000008152600401610ab1906124fd565b60405180910390fd5b6000610ac461147b565b90506000815111610ae45760405180602001604052806000815250610b0f565b80610aee8461149b565b604051602001610aff929190612559565b6040516020818303038152906040525b915050919050565b6000600760008473ffffffffffffffffffffffffffffffffffffffff1673ffffffffffffffffffffffffffffffffffffffff16815260200190815260200160002060008373ffffffffffffffffffffffffffffffffffffffff1673ffffffffffffffffffffffffffffffffffffffff16815260200190815260200160002060009054906101000a900460ff16905092915050565b60007f01ffc9a7000000000000000000000000000000000000000000000000000000007bffffffffffffffffffffffffffffffffffffffffffffffffffffffff1916827bffffffffffffffffffffffffffffffffffffffffffffffffffffffff1916149050919050565b60008073ffffffffffffffffffffffffffffffffffffffff166004600084815260200190815260200160002060009054906101000a900473ffffffffffffffffffffffffffffffffffffffff1673ffffffffffffffffffffffffffffffffffffffff1614159050919050565b600033905090565b816006600083815260200190815260200160002060006101000a81548173ffffffffffffffffffffffffffffffffffffffff021916908373ffffffffffffffffffffffffffffffffffffffff160217905550808273ffffffffffffffffffffffffffffffffffffffff16610cfc836107fe565b73ffffffffffffffffffffffffffffffffffffffff167f8c5be1e5ebec7d5bd14f71427d1e84f3dd0314c0f7b2291e5b200ac8c7c3b92560405160405180910390a45050565b6000610d4d82610c15565b610d8c576040517f08c379a0000000000000000000000000000000000000000000000000000000008152600401610d83906125ef565b60405180910390fd5b6000610d97836107fe565b90508073ffffffffffffffffffffffffffffffffffffffff168473ffffffffffffffffffffffffffffffffffffffff161480610dd95750610dd88185610b17565b5b80610e1757508373ffffffffffffffffffffffffffffffffffffffff16610dff846104b7565b73ffffffffffffffffffffffffffffffffffffffff16145b91505092915050565b8273ffffffffffffffffffffffffffffffffffffffff16610e40826107fe565b73ffffffffffffffffffffffffffffffffffffffff1614610e96576040517f08c379a0000000000000000000000000000000000000000000000000000000008152600401610e8d90612681565b60405180910390fd5b600073ffffffffffffffffffffffffffffffffffffffff168273ffffffffffffffffffffffffffffffffffffffff1603610f05576040517f08c379a0000000000000000000000000000000000000000000000000000000008152600401610efc90612713565b60405180910390fd5b610f108383836115fb565b610f1b600082610c89565b6001600560008573ffffffffffffffffffffffffffffffffffffffff1673ffffffffffffffffffffffffffffffffffffffff1681526020019081526020016000206000828254610f6b9190612762565b925050819055506001600560008473ffffffffffffffffffffffffffffffffffffffff1673ffffffffffffffffffffffffffffffffffffffff1681526020019081526020016000206000828254610fc29190612796565b92505081905550816004600083815260200190815260200160002060006101000a81548173ffffffffffffffffffffffffffffffffffffffff021916908373ffffffffffffffffffffffffffffffffffffffff160217905550808273ffffffffffffffffffffffffffffffffffffffff168473ffffffffffffffffffffffffffffffffffffffff167fddf252ad1be2c89b69c2b068fc378daa952ba7f163c4a11628f55a4df523b3ef60405160405180910390a461108183838361163b565b505050565b6000600360009054906101000a900473ffffffffffffffffffffffffffffffffffffffff1673ffffffffffffffffffffffffffffffffffffffff163373ffffffffffffffffffffffffffffffffffffffff1614905090565b6001816000016000828254019250508190555050565b600081600001549050919050565b61110c838361167b565b6111196000848484611854565b611158576040517f08c379a000000000000000000000000000000000000000000000000000000000815260040161114f9061285e565b60405180910390fd5b505050565b6000611168826107fe565b9050611176816000846115fb565b611181600083610c89565b6001600560008373ffffffffffffffffffffffffffffffffffffffff1673ffffffffffffffffffffffffffffffffffffffff16815260200190815260200160002060008282546111d19190612762565b925050819055506004600083815260200190815260200160002060006101000a81549073ffffffffffffffffffffffffffffffffffffffff021916905581600073ffffffffffffffffffffffffffffffffffffffff168273ffffffffffffffffffffffffffffffffffffffff167fddf252ad1be2c89b69c2b068fc378daa952ba7f163c4a11628f55a4df523b3ef60405160405180910390a46112768160008461163b565b5050565b8173ffffffffffffffffffffffffffffffffffffffff168373ffffffffffffffffffffffffffffffffffffffff16036112e8576040517f08c379a00000000000000000000000000000000000000000000000000000000081526004016112df906128ca565b60405180910390fd5b80600760008573ffffffffffffffffffffffffffffffffffffffff1673ffffffffffffffffffffffffffffffffffffffff16815260200190815260200160002060008473ffffffffffffffffffffffffffffffffffffffff1673ffffffffffffffffffffffffffffffffffffffff16815260200190815260200160002060006101000a81548160ff0219169083151502179055508173ffffffffffffffffffffffffffffffffffffffff168373ffffffffffffffffffffffffffffffffffffffff167f17307eab39ab6107e8899845ad3d59bd9653f200f220920489ca2b5937696c31836040516113d99190611ab2565b60405180910390a3505050565b600073ffffffffffffffffffffffffffffffffffffffff168473ffffffffffffffffffffffffffffffffffffffff160361141f57600080fd5b61142a848484610e20565b61143684848484611854565b611475576040517f08c379a000000000000000000000000000000000000000000000000000000000815260040161146c9061285e565b60405180910390fd5b50505050565b6060604051806060016040528060348152602001612be560349139905090565b6060600082036114e2576040518060400160405280600181526020017f300000000000000000000000000000000000000000000000000000000000000081525090506115f6565b600082905060005b600082146115145780806114fd906128ea565b915050600a8261150d9190612961565b91506114ea565b60008167ffffffffffffffff8111156115305761152f611dd3565b5b6040519080825280601f01601f1916602001820160405280156115625781602001600182028036833780820191505090505b5090505b600085146115ef5760018261157b9190612762565b9150600a8561158a9190612992565b60306115969190612796565b60f81b8183815181106115ac576115ab6129c3565b5b60200101907effffffffffffffffffffffffffffffffffffffffffffffffffffffffffffff1916908160001a905350600a856115e89190612961565b9450611566565b8093505050505b919050565b7fef4729eb399673ea018833a5fb61aead4c9bafb5fd8f29a1abfcf4968fa211f883838360405161162e939291906129f2565b60405180910390a1505050565b7f33e4b79af59fd12fb070f4c5fe662ee4be948e7c235be3e4a9385f85711e2b1983838360405161166e939291906129f2565b60405180910390a1505050565b600073ffffffffffffffffffffffffffffffffffffffff168273ffffffffffffffffffffffffffffffffffffffff16036116ea576040517f08c379a00000000000000000000000000000000000000000000000000000000081526004016116e190612a75565b60405180910390fd5b6116f381610c15565b15611733576040517f08c379a000000000000000000000000000000000000000000000000000000000815260040161172a90612ae1565b60405180910390fd5b61173f600083836115fb565b6001600560008473ffffffffffffffffffffffffffffffffffffffff1673ffffffffffffffffffffffffffffffffffffffff168152602001908152602001600020600082825461178f9190612796565b92505081905550816004600083815260200190815260200160002060006101000a81548173ffffffffffffffffffffffffffffffffffffffff021916908373ffffffffffffffffffffffffffffffffffffffff160217905550808273ffffffffffffffffffffffffffffffffffffffff16600073ffffffffffffffffffffffffffffffffffffffff167fddf252ad1be2c89b69c2b068fc378daa952ba7f163c4a11628f55a4df523b3ef60405160405180910390a46118506000838361163b565b5050565b60006118758473ffffffffffffffffffffffffffffffffffffffff166119db565b156119ce578373ffffffffffffffffffffffffffffffffffffffff1663150b7a0261189e610c81565b8786866040518563ffffffff1660e01b81526004016118c09493929190612b56565b6020604051808303816000875af19250505080156118fc57506040513d601f19601f820116820180604052508101906118f99190612bb7565b60015b61197e573d806000811461192c576040519150601f19603f3d011682016040523d82523d6000602084013e611931565b606091505b506000815103611976576040517f08c379a000000000000000000000000000000000000000000000000000000000815260040161196d9061285e565b60405180910390fd5b805181602001fd5b63150b7a0260e01b7bffffffffffffffffffffffffffffffffffffffffffffffffffffffff1916817bffffffffffffffffffffffffffffffffffffffffffffffffffffffff1916149150506119d3565b600190505b949350505050565b6000808273ffffffffffffffffffffffffffffffffffffffff163b119050919050565b6000604051905090565b600080fd5b600080fd5b60007fffffffff0000000000000000000000000000000000000000000000000000000082169050919050565b611a4781611a12565b8114611a5257600080fd5b50565b600081359050611a6481611a3e565b92915050565b600060208284031215611a8057611a7f611a08565b5b6000611a8e84828501611a55565b91505092915050565b60008115159050919050565b611aac81611a97565b82525050565b6000602082019050611ac76000830184611aa3565b92915050565b600081519050919050565b600082825260208201905092915050565b60005b83811015611b07578082015181840152602081019050611aec565b83811115611b16576000848401525b50505050565b6000601f19601f8301169050919050565b6000611b3882611acd565b611b428185611ad8565b9350611b52818560208601611ae9565b611b5b81611b1c565b840191505092915050565b60006020820190508181036000830152611b808184611b2d565b905092915050565b6000819050919050565b611b9b81611b88565b8114611ba657600080fd5b50565b600081359050611bb881611b92565b92915050565b600060208284031215611bd457611bd3611a08565b5b6000611be284828501611ba9565b91505092915050565b600073ffffffffffffffffffffffffffffffffffffffff82169050919050565b6000611c1682611beb565b9050919050565b611c2681611c0b565b82525050565b6000602082019050611c416000830184611c1d565b92915050565b611c5081611c0b565b8114611c5b57600080fd5b50565b600081359050611c6d81611c47565b92915050565b60008060408385031215611c8a57611c89611a08565b5b6000611c9885828601611c5e565b9250506020611ca985828601611ba9565b9150509250929050565b600080600060608486031215611ccc57611ccb611a08565b5b6000611cda86828701611c5e565b9350506020611ceb86828701611c5e565b9250506040611cfc86828701611ba9565b9150509250925092565b600060208284031215611d1c57611d1b611a08565b5b6000611d2a84828501611c5e565b91505092915050565b611d3c81611b88565b82525050565b6000602082019050611d576000830184611d33565b92915050565b611d6681611a97565b8114611d7157600080fd5b50565b600081359050611d8381611d5d565b92915050565b60008060408385031215611da057611d9f611a08565b5b6000611dae85828601611c5e565b9250506020611dbf85828601611d74565b9150509250929050565b600080fd5b600080fd5b7f4e487b7100000000000000000000000000000000000000000000000000000000600052604160045260246000fd5b611e0b82611b1c565b810181811067ffffffffffffffff82111715611e2a57611e29611dd3565b5b80604052505050565b6000611e3d6119fe565b9050611e498282611e02565b919050565b600067ffffffffffffffff821115611e6957611e68611dd3565b5b611e7282611b1c565b9050602081019050919050565b82818337600083830152505050565b6000611ea1611e9c84611e4e565b611e33565b905082815260208101848484011115611ebd57611ebc611dce565b5b611ec8848285611e7f565b509392505050565b600082601f830112611ee557611ee4611dc9565b5b8135611ef5848260208601611e8e565b91505092915050565b60008060008060808587031215611f1857611f17611a08565b5b6000611f2687828801611c5e565b9450506020611f3787828801611c5e565b9350506040611f4887828801611ba9565b925050606085013567ffffffffffffffff811115611f6957611f68611a0d565b5b611f7587828801611ed0565b91505092959194509250565b60008060408385031215611f9857611f97611a08565b5b6000611fa685828601611c5e565b9250506020611fb785828601611c5e565b9150509250929050565b7f4e487b7100000000000000000000000000000000000000000000000000000000600052602260045260246000fd5b6000600282049050600182168061200857607f821691505b60208210810361201b5761201a611fc1565b5b50919050565b7f4552433732313a20617070726f76656420717565727920666f72206e6f6e657860008201527f697374656e7420746f6b656e0000000000000000000000000000000000000000602082015250565b600061207d602c83611ad8565b915061208882612021565b604082019050919050565b600060208201905081810360008301526120ac81612070565b9050919050565b7f4552433732313a20617070726f76616c20746f2063757272656e74206f776e6560008201527f7200000000000000000000000000000000000000000000000000000000000000602082015250565b600061210f602183611ad8565b915061211a826120b3565b604082019050919050565b6000602082019050818103600083015261213e81612102565b9050919050565b7f4552433732313a20617070726f76652063616c6c6572206973206e6f74206f7760008201527f6e6572206e6f7220617070726f76656420666f7220616c6c0000000000000000602082015250565b60006121a1603883611ad8565b91506121ac82612145565b604082019050919050565b600060208201905081810360008301526121d081612194565b9050919050565b7f4552433732313a207472616e736665722063616c6c6572206973206e6f74206f60008201527f776e6572206e6f7220617070726f766564000000000000000000000000000000602082015250565b6000612233603183611ad8565b915061223e826121d7565b604082019050919050565b6000602082019050818103600083015261226281612226565b9050919050565b7f46756e6374696f6e2061636365737369626c65206f6e6c7920627920636f6e7460008201527f72616374206f776e657221000000000000000000000000000000000000000000602082015250565b60006122c5602b83611ad8565b91506122d082612269565b604082019050919050565b600060208201905081810360008301526122f4816122b8565b9050919050565b7f4f6e6c7920546f6b656e206f776e65722063616e206275726e20697400000000600082015250565b6000612331601c83611ad8565b915061233c826122fb565b602082019050919050565b6000602082019050818103600083015261236081612324565b9050919050565b7f4552433732313a206f776e657220717565727920666f72206e6f6e657869737460008201527f656e7420746f6b656e0000000000000000000000000000000000000000000000602082015250565b60006123c3602983611ad8565b91506123ce82612367565b604082019050919050565b600060208201905081810360008301526123f2816123b6565b9050919050565b7f4552433732313a2062616c616e636520717565727920666f7220746865207a6560008201527f726f206164647265737300000000000000000000000000000000000000000000602082015250565b6000612455602a83611ad8565b9150612460826123f9565b604082019050919050565b6000602082019050818103600083015261248481612448565b9050919050565b7f4552433732314d657461646174613a2055524920717565727920666f72206e6f60008201527f6e6578697374656e7420746f6b656e0000000000000000000000000000000000602082015250565b60006124e7602f83611ad8565b91506124f28261248b565b604082019050919050565b60006020820190508181036000830152612516816124da565b9050919050565b600081905092915050565b600061253382611acd565b61253d818561251d565b935061254d818560208601611ae9565b80840191505092915050565b60006125658285612528565b91506125718284612528565b91508190509392505050565b7f4552433732313a206f70657261746f7220717565727920666f72206e6f6e657860008201527f697374656e7420746f6b656e0000000000000000000000000000000000000000602082015250565b60006125d9602c83611ad8565b91506125e48261257d565b604082019050919050565b60006020820190508181036000830152612608816125cc565b9050919050565b7f4552433732313a207472616e736665722066726f6d20696e636f72726563742060008201527f6f776e6572000000000000000000000000000000000000000000000000000000602082015250565b600061266b602583611ad8565b91506126768261260f565b604082019050919050565b6000602082019050818103600083015261269a8161265e565b9050919050565b7f4552433732313a207472616e7366657220746f20746865207a65726f2061646460008201527f7265737300000000000000000000000000000000000000000000000000000000602082015250565b60006126fd602483611ad8565b9150612708826126a1565b604082019050919050565b6000602082019050818103600083015261272c816126f0565b9050919050565b7f4e487b7100000000000000000000000000000000000000000000000000000000600052601160045260246000fd5b600061276d82611b88565b915061277883611b88565b92508282101561278b5761278a612733565b5b828203905092915050565b60006127a182611b88565b91506127ac83611b88565b9250827fffffffffffffffffffffffffffffffffffffffffffffffffffffffffffffffff038211156127e1576127e0612733565b5b828201905092915050565b7f4552433732313a207472616e7366657220746f206e6f6e20455243373231526560008201527f63656976657220696d706c656d656e7465720000000000000000000000000000602082015250565b6000612848603283611ad8565b9150612853826127ec565b604082019050919050565b600060208201905081810360008301526128778161283b565b9050919050565b7f4552433732313a20617070726f766520746f2063616c6c657200000000000000600082015250565b60006128b4601983611ad8565b91506128bf8261287e565b602082019050919050565b600060208201905081810360008301526128e3816128a7565b9050919050565b60006128f582611b88565b91507fffffffffffffffffffffffffffffffffffffffffffffffffffffffffffffffff820361292757612926612733565b5b600182019050919050565b7f4e487b7100000000000000000000000000000000000000000000000000000000600052601260045260246000fd5b600061296c82611b88565b915061297783611b88565b92508261298757612986612932565b5b828204905092915050565b600061299d82611b88565b91506129a883611b88565b9250826129b8576129b7612932565b5b828206905092915050565b7f4e487b7100000000000000000000000000000000000000000000000000000000600052603260045260246000fd5b6000606082019050612a076000830186611c1d565b612a146020830185611c1d565b612a216040830184611d33565b949350505050565b7f4552433732313a206d696e7420746f20746865207a65726f2061646472657373600082015250565b6000612a5f602083611ad8565b9150612a6a82612a29565b602082019050919050565b60006020820190508181036000830152612a8e81612a52565b9050919050565b7f4552433732313a20746f6b656e20616c7265616479206d696e74656400000000600082015250565b6000612acb601c83611ad8565b9150612ad682612a95565b602082019050919050565b60006020820190508181036000830152612afa81612abe565b9050919050565b600081519050919050565b600082825260208201905092915050565b6000612b2882612b01565b612b328185612b0c565b9350612b42818560208601611ae9565b612b4b81611b1c565b840191505092915050565b6000608082019050612b6b6000830187611c1d565b612b786020830186611c1d565b612b856040830185611d33565b8181036060830152612b978184612b1d565b905095945050505050565b600081519050612bb181611a3e565b92915050565b600060208284031215612bcd57612bcc611a08565b5b6000612bdb84828501612ba2565b9150509291505056fe2f697066732f516d56317a5244714a697075506d56687866685a3356653858455956414350476d5a484a6b676963784e46637277a264697066735822122003b8005fc08ae1789b7efb8aa829ede6c2b906d110fd90f6fdefa656f5e9553c64736f6c634300080e0033",
  "immutableReferences": {},
  "source": "// SPDX-License-Identifier: MIT\npragma solidity >=0.4.22 <0.9.0;\n\nimport \"@openzeppelin/contracts/token/ERC721/ERC721.sol\";\nimport \"@openzeppelin/contracts/token/ERC721/IERC721.sol\";\nimport \"@openzeppelin/contracts/token/ERC721/extensions/IERC721Metadata.sol\";\nimport \"@openzeppelin/contracts/utils/Counters.sol\";\nimport \"@openzeppelin/contracts/utils/Address.sol\";\nimport \"@openzeppelin/contracts/utils/Context.sol\";\nimport \"@openzeppelin/contracts/utils/Strings.sol\";\nimport \"@openzeppelin/contracts/utils/Counters.sol\";\nimport \"@openzeppelin/contracts/utils/introspection/ERC165.sol\";\n\n\ncontract CommFutureNFT is Context, ERC165, IERC721, IERC721Metadata {\n    using Address for address;\n    using Strings for uint256;\n    using Counters for Counters.Counter;\n    Counters.Counter private _tokenIdCounter;\n\n    string private _name = \"CommFutureNFT\";\n    string private _symbol = \"CFN\";\n    address public _contractOwner;\n    \n    mapping(uint256 => address) private _owners;   \n    mapping(address => uint256) private _balances;    \n    mapping(uint256 => address) private _tokenApprovals;    \n    mapping(address => mapping(address => bool)) private _operatorApprovals;\n\n    \n    event _stateBefore(address from,address to, uint256 tokenId);\n    event _stateAfter(address previousOwner, address newOwner, uint256 tokenId);\n    event _minted(address to, uint256 tokenId);\n\n    modifier onlyContractOwner() {\n        require(isContractOwner(), \"Function accessible only by contract owner!\");\n        _;\n    }\n\n       function isContractOwner() internal view returns (bool) {\n        return msg.sender == _contractOwner;\n    }\n\n    \n    constructor() {\n        _contractOwner = msg.sender;\n    }\n\n    function supportsInterface(bytes4 interfaceId) public view virtual override(ERC165, IERC165) returns (bool) {\n        return\n            interfaceId == type(IERC721).interfaceId ||\n            interfaceId == type(IERC721Metadata).interfaceId ||\n            super.supportsInterface(interfaceId);\n    }\n\n    function balanceOf(address owner) public view virtual override returns (uint256) {\n        require(owner != address(0), \"ERC721: balance query for the zero address\");\n        return _balances[owner];\n    }\n\n    function ownerOf(uint256 tokenId) public view virtual override returns (address) {\n        address owner = _owners[tokenId];\n        require(owner != address(0), \"ERC721: owner query for nonexistent token\");\n        return owner;\n    }\n\n\n    function name() public view virtual override returns (string memory) {\n        return _name;\n    }\n\n\n    function symbol() public view virtual override returns (string memory) {\n        return _symbol;\n    }\n\n    function tokenURI(uint256 tokenId) public view virtual override returns (string memory) {\n        require(_exists(tokenId), \"ERC721Metadata: URI query for nonexistent token\");\n\n        string memory baseURI = _baseURI();\n        return bytes(baseURI).length > 0 ? string(abi.encodePacked(baseURI, tokenId.toString())) : \"\";\n    }\n\n\n    function _baseURI() internal view virtual returns (string memory) {\n        return \"/ipfs/QmV1zRDqJipuPmVhxfhZ3Ve8XEYVACPGmZHJkgicxNFcrw\";\n    }\n\n\n    function approve(address to, uint256 tokenId) public virtual override {\n        address owner = CommFutureNFT.ownerOf(tokenId);\n        require(to != owner, \"ERC721: approval to current owner\");\n\n        require(\n            _msgSender() == owner || isApprovedForAll(owner, _msgSender()),\n            \"ERC721: approve caller is not owner nor approved for all\"\n        );\n\n        _approve(to, tokenId);\n    }\n\n\n    function getApproved(uint256 tokenId) public view virtual override returns (address) {\n        require(_exists(tokenId), \"ERC721: approved query for nonexistent token\");\n\n        return _tokenApprovals[tokenId];\n    }\n\n\n    function setApprovalForAll(address operator, bool approved) public virtual override {\n        _setApprovalForAll(_msgSender(), operator, approved);\n    }\n\n\n    function isApprovedForAll(address owner, address operator) public view virtual override returns (bool) {\n        return _operatorApprovals[owner][operator];\n    }\n\n\n    function transferFrom(\n        address from,\n        address to,\n        uint256 tokenId\n    ) public virtual override {        \n        require(_isApprovedOrOwner(_msgSender(), tokenId), \"ERC721: transfer caller is not owner nor approved\");\n\n        _transfer(from, to, tokenId);\n    }\n\n\n    function safeTransferFrom(\n        address from,\n        address to,\n        uint256 tokenId\n    ) public virtual override {\n        safeTransferFrom(from, to, tokenId, \"\");\n    }\n\n\n    function safeTransferFrom(\n        address from,\n        address to,\n        uint256 tokenId,\n        bytes memory _data\n    ) public virtual override {\n        require(_isApprovedOrOwner(_msgSender(), tokenId), \"ERC721: transfer caller is not owner nor approved\");\n        _safeTransfer(from, to, tokenId, _data);\n    }\n\n\n    function _safeTransfer(\n        address from,\n        address to,\n        uint256 tokenId,\n        bytes memory _data\n    ) internal virtual {\n        require(from != address(0));            \n        _transfer(from, to, tokenId);\n        require(_checkOnERC721Received(from, to, tokenId, _data), \"ERC721: transfer to non ERC721Receiver implementer\");\n    }\n\n    function _transfer(\n        address from,\n        address to,\n        uint256 tokenId\n    ) internal virtual {\n        require(CommFutureNFT.ownerOf(tokenId) == from, \"ERC721: transfer from incorrect owner\");\n        require(to != address(0), \"ERC721: transfer to the zero address\");\n        _beforeTokenTransfer(from, to, tokenId);       \n        _approve(address(0), tokenId);\n        _balances[from] -= 1;\n        _balances[to] += 1;\n        _owners[tokenId] = to;\n        emit Transfer(from, to, tokenId);\n        _afterTokenTransfer(from, to, tokenId);\n    }\n    \n    function _exists(uint256 tokenId) internal view virtual returns (bool) {\n        return _owners[tokenId] != address(0);\n    }\n\n\n    function _isApprovedOrOwner(address spender, uint256 tokenId) internal view virtual returns (bool) {\n        require(_exists(tokenId), \"ERC721: operator query for nonexistent token\");\n        address owner = CommFutureNFT.ownerOf(tokenId);\n        return (spender == owner || isApprovedForAll(owner, spender) || getApproved(tokenId) == spender);\n    }\n\n      \n    function safeMint(address to) public onlyContractOwner {\n        _tokenIdCounter.increment();\n        uint256 tokenId = _tokenIdCounter.current();        \n        _safeMint(to, tokenId, \"\");\n    }\n   \n    function _safeMint(\n        address to,\n        uint256 tokenId,\n        bytes memory _data\n    ) internal virtual {\n        _mint(to, tokenId);\n        require(\n            _checkOnERC721Received(address(0), to, tokenId, _data),\n            \"ERC721: transfer to non ERC721Receiver implementer\"\n        );\n    }\n\n    function _mint(address to, uint256 tokenId) internal virtual {\n        require(to != address(0), \"ERC721: mint to the zero address\");\n        require(!_exists(tokenId), \"ERC721: token already minted\");\n        _beforeTokenTransfer(address(0), to, tokenId);\n        _balances[to] += 1;\n        _owners[tokenId] = to;\n        emit Transfer(address(0), to, tokenId);\n        _afterTokenTransfer(address(0), to, tokenId);\n    }\n\n    function burn(uint256 tokenId) public {\n        address owner = CommFutureNFT.ownerOf(tokenId);\n        require(msg.sender == owner, \"Only Token owner can burn it\");        \n        _burn(tokenId);\n    }\n\n    function _burn(uint256 tokenId) internal virtual {\n        address owner = CommFutureNFT.ownerOf(tokenId);\n        _beforeTokenTransfer(owner, address(0), tokenId);\n        _approve(address(0), tokenId);\n        _balances[owner] -= 1;\n        delete _owners[tokenId];\n        emit Transfer(owner, address(0), tokenId);\n        _afterTokenTransfer(owner, address(0), tokenId);\n    }\n\n     \n \n    function _approve(address to, uint256 tokenId) internal virtual {\n        _tokenApprovals[tokenId] = to;\n        emit Approval(CommFutureNFT.ownerOf(tokenId), to, tokenId);\n    }\n\n\n    function _setApprovalForAll(\n        address owner,\n        address operator,\n        bool approved\n    ) internal virtual {\n        require(owner != operator, \"ERC721: approve to caller\");\n        _operatorApprovals[owner][operator] = approved;\n        emit ApprovalForAll(owner, operator, approved);\n    }\n\n\n    function _checkOnERC721Received(\n        address from,\n        address to,\n        uint256 tokenId,\n        bytes memory _data\n    ) private returns (bool) {\n        if (to.isContract()) {\n            try IERC721Receiver(to).onERC721Received(_msgSender(), from, tokenId, _data) returns (bytes4 retval) {\n                return retval == IERC721Receiver.onERC721Received.selector;\n            } catch (bytes memory reason) {\n                if (reason.length == 0) {\n                    revert(\"ERC721: transfer to non ERC721Receiver implementer\");\n                } else {\n                    assembly {\n                        revert(add(32, reason), mload(reason))\n                    }\n                }\n            }\n        } else {\n            return true;\n        }\n    }\n\n        function _beforeTokenTransfer(\n        address from,\n        address to,\n        uint256 tokenId\n    ) internal virtual {\n        emit _stateBefore(from, to, tokenId);\n    }\n    \n    function _afterTokenTransfer(\n        address from,\n        address to,\n        uint256 tokenId\n    ) internal virtual {\n        emit _stateAfter(from, to, tokenId);\n    }\n}\n\n\n",
  "sourcePath": "C:\\Users\\Inty Scoss Mendoza\\Desktop\\cfn-dapp\\contracts\\CFN.sol",
  "compiler": {
    "name": "solc",
    "version": "0.8.14+commit.80d49f37.Emscripten.clang"
  },
  "schemaVersion": "3.4.7",
  "updatedAt": "2022-06-30T01:32:12.304Z",
  "networkType": "ethereum",
  "devdoc": {
    "kind": "dev",
    "methods": {
      "approve(address,uint256)": {
        "details": "Gives permission to `to` to transfer `tokenId` token to another account. The approval is cleared when the token is transferred. Only a single account can be approved at a time, so approving the zero address clears previous approvals. Requirements: - The caller must own the token or be an approved operator. - `tokenId` must exist. Emits an {Approval} event."
      },
      "balanceOf(address)": {
        "details": "Returns the number of tokens in ``owner``'s account."
      },
      "getApproved(uint256)": {
        "details": "Returns the account approved for `tokenId` token. Requirements: - `tokenId` must exist."
      },
      "isApprovedForAll(address,address)": {
        "details": "Returns if the `operator` is allowed to manage all of the assets of `owner`. See {setApprovalForAll}"
      },
      "name()": {
        "details": "Returns the token collection name."
      },
      "ownerOf(uint256)": {
        "details": "Returns the owner of the `tokenId` token. Requirements: - `tokenId` must exist."
      },
      "safeTransferFrom(address,address,uint256)": {
        "details": "Safely transfers `tokenId` token from `from` to `to`, checking first that contract recipients are aware of the ERC721 protocol to prevent tokens from being forever locked. Requirements: - `from` cannot be the zero address. - `to` cannot be the zero address. - `tokenId` token must exist and be owned by `from`. - If the caller is not `from`, it must be have been allowed to move this token by either {approve} or {setApprovalForAll}. - If `to` refers to a smart contract, it must implement {IERC721Receiver-onERC721Received}, which is called upon a safe transfer. Emits a {Transfer} event."
      },
      "symbol()": {
        "details": "Returns the token collection symbol."
      },
      "tokenURI(uint256)": {
        "details": "Returns the Uniform Resource Identifier (URI) for `tokenId` token."
      },
      "transferFrom(address,address,uint256)": {
        "details": "Transfers `tokenId` token from `from` to `to`. WARNING: Usage of this method is discouraged, use {safeTransferFrom} whenever possible. Requirements: - `from` cannot be the zero address. - `to` cannot be the zero address. - `tokenId` token must be owned by `from`. - If the caller is not `from`, it must be approved to move this token by either {approve} or {setApprovalForAll}. Emits a {Transfer} event."
      }
    },
    "version": 1
  },
  "userdoc": {
    "kind": "user",
    "methods": {},
    "version": 1
  }
}